:020000040000FA
:1000000010201720A80A2B20A8209620081C0B28B7
:100010000508A8000328FF302806031947200228F6
:100020008316031311308F00831203130800831605
:100030000313FF3085000130880083160317880101
:100040008901831603138601870183120313850137
:100050008601870108002808A700A40AA70B3128F9
:100060000800A40A0A302406031D2E28A401A50AAC
:100070000A302506031D3528A401A501A60A0A3069
:100080002606031D3B28A401A501A60108000A308D
:10009000AA000F308700FF3086009F200818022832
:1000A00007308700FE3086009F20081802280330A2
:1000B0008700FC3086009F20081802280130870046
:1000C000F83086009F20081802288701F03086004B
:1000D0009F20081802288701603086009F2008189A
:1000E00002288701F03086009F200818022801307E
:1000F0008700F83086009F20081802280330870008
:10010000FC3086009F200818022807308700FE3048
:1001100086009F20081802280F308700FF308600D5
:100120009F2008180228AA0B492808006430A00064
:100130006830A100A10B9A28A00B98280800643011
:10014000A2003630A300A30BA328A20BA12808000D
:100150002508A900A90E240829048600260887007E
:08016000A401A501A60108009D
:04016800003400342B
:02400E00F42399
:02401000FF3E71
:00000001FF
